:020000040800F2
:10000000E0060020290200084B1700081113000821
:10001000491700081F040008F91700080000000035
:100020000000000000000000000000004F17000862
:1000300021040008000000004D17000851170008B7
:10004000430200084302000843020008430200087C
:10005000430200084302000843020008430200086C
:10006000430200084302000843020008430200085C
:10007000430200084302000843020008430200084C
:10008000430200084302000843020008430200083C
:10009000430200084302000843020008430200082C
:1000A000430200084302000843020008430200081C
:1000B000430200084302000843020008430200080C
:1000C00043020008430200084302000843020008FC
:1000D00043020008430200084302000843020008EC
:1000E00043020008430200084302000843020008DC
:1000F00043020008430200084302000843020008CC
:1001000043020008430200084302000843020008BB
:1001100043020008430200084302000843020008AB
:10012000430200084302000843020008430200089B
:10013000430200084302000843020008430200088B
:10014000430200084302000843020008430200087B
:10015000430200084302000843020008430200086B
:10016000430200084302000843020008430200085B
:100170004302000843020008430200080000000098
:10018000430200084302000800F002F800F03CF8C7
:100190000AA090E8000C82448344AAF10107DA45E2
:1001A00001D100F031F8AFF2090EBAE80F0013F0F8
:1001B000010F18BFFB1A43F001031847841A00000F
:1001C000A41A0000103A24BF78C878C1FAD85207A0
:1001D00024BF30C830C144BF04680C6070470000C1
:1001E0000023002400250026103A28BF78C1FBD840
:1001F000520728BF30C148BF0B6070471FB501F0E0
:1002000009FD1FBD10B510BD00F0CFF81146FFF776
:10021000F5FF01F003FB00F0EDF803B4FFF7F2FF88
:1002200003BC00F0F5F80000094880470948004782
:10023000FEE7FEE7FEE7FEE7FEE7FEE7FEE7FEE796
:10024000FEE7FEE704480549054A064B70470000F3
:10025000E917000889010008E0000020E0060020FE
:10026000E0020020E002002053EA020C00F0698066
:100270002DE9F04B4FF00006002B1FBFB3FA83F5BA
:1002800003FA05F424FA05F65E4012BF1643B2FAEB
:1002900082F502FA05F4C5F120051EBF22FA05FC1D
:1002A00044EA0C04203556EA044C4FEA144418BFC3
:1002B000641C4FF000084FF00009904271EB030CF2
:1002C00039D3002919BFB1FA81F701FA07F6B0FA5C
:1002D00080F700FA07F6C7F120071EBF20FA07FCD7
:1002E00046EA0C062037B6FBF4FCA7EB0507103FE7
:1002F00007F01F0BCBF120060CFA0BFB2CFA06F6CD
:1003000044BFB3460026202FA4BF5E464FF0000B2B
:100310005BEA060C08BF4FF0010B19EB0B09ABFBB6
:10032000027C48EB0608C01B06FB02CC0BFB03CC8F
:1003300071EB0C01C1E70B46024641464846BDE859
:10034000F08B13B54FF000004FF00001AFF30080C9
:10035000BDE81C4070474FF0000200B513469446BC
:100360009646203922BFA0E80C50A0E80C50B1F10D
:100370002001BFF4F7AF090728BFA0E80C5048BF21
:100380000CC05DF804EB890028BF40F8042B08BFBF
:10039000704748BF20F8022B11F0804F18BF00F8BB
:1003A000012B7047704770477047754600F02CF876
:1003B000AE4605006946534620F00700854618B052
:1003C00020B5FFF73FFFBDE820404FF000064FF09B
:1003D00000074FF000084FF0000B21F00701AC467A
:1003E000ACE8C009ACE8C009ACE8C009ACE8C00999
:1003F0008D46704710B50446AFF300802046BDE837
:100400001040FFF70ABF000000487047800000203E
:1004100001491820ABBEFEE7260002007047FEE748
:10042000704700002DE9F84FDFF8BCA1002201253C
:1004300003264FF00F090AF1040BAAF1040E00BFC6
:100440000B6805FA02F42340A34270D10F7907F03C
:100450000307012F01D0022F16D187684FEA420807
:1004600006FA08FC27EA0C07D1F80CC00CFA08FCC5
:100470004CEA070CC0F808C04768A7430C79C4F3DE
:10048000001494403C4344600C79E443A4070AD030
:10049000C4684FEA420C06FA0CF7BC438F6807FAAF
:1004A0000CF72743C7600C7904F00304022C12D127
:1004B000D40800EB840CDCF820405707FF0E09FA43
:1004C00007F824EA0804D1F8108008FA07F848EA87
:1004D0000408CCF8208004684FEA420C06FA0CF7B6
:1004E000BC430F7907F0030707FA0CF727430760AF
:1004F0004C6814F4403F70D03C4C276847F4804768
:100500002760246822F0030704F480440094384CE8
:1005100007EB040CDCF8084897074FEA177809FA4C
:1005200008F7BC43334FB84202D1002724E054E01F
:10053000314FB84201D101271EE0304FB84201D1FE
:10054000022719E02E4FB84201D1032714E02D4FA6
:10055000B84201D104270FE02B4FB84201D1052743
:100560000AE02A4FB84201D1062705E0284FB842D9
:1005700001D1072700E0082707FA08F72743CCF83E
:100580000878DAF800405746D1F804C09C435FEA87
:10059000CC2C00D51C433C60DBF800405F46D1F812
:1005A00004C09C435FEA8C2C00D51C433C60DEF801
:1005B00000407746D1F804C09C435FEA8C3C00D5EC
:1005C0001C433C60084F083F3C68D1F804C09C4382
:1005D0005FEACC3C00D51C433C60521C102AFFF45F
:1005E0002FAFBDE8F88F0000083C014044380240BE
:1005F00000300140000002400004024000080240B8
:10060000000C02400010024000140240001802409A
:10061000001C02400069084000D001207047426978
:1006200021EA02030A4043EA0241816170470AB1AC
:10063000816170470904FBE701488068704700004A
:100640001C00002070B5040025D094F83D00002562
:1006500020B984F83C50204600F0F4FA242084F8B5
:100660003D002068016821F00101016020680168F7
:1006700041F4004101602068016821F400410160FB
:1006800000F03AFC4D4A6168914201D84C4900E0C3
:100690004C49884201D2012070BD4B492368B0FB10
:1006A000F1F15E6826F03F060E435E606368934298
:1006B00006D94FF4967359434FF47A73B1FBF3F1B3
:1006C0002368491C1E6A26F03F063143196261689F
:1006D000914210D84900401EB0FBF1F2521CC2F307
:1006E0000B02042A01D2042022E0B0FBF1F0401CEE
:1006F000C0F30B001CE0A268F2B301EBC10303EBF3
:100700000116431EB3FBF6F35B1C43F480431B0549
:1007100049D092B301EBC10202EB0111401EB0FBC4
:10072000F1F0401CC0F30B0040F4804040F4004066
:100730002168CA694CF6FF739A431043C861D4E933
:10074000071001432068026822F0C00211430160D3
:10075000D4E9030101432068826848F2FF339A43D9
:1007600011438160D4E9050108432168CA6822F079
:10077000FF021043C86001E00EE016E02068016847
:1007800041F0010101602564202084F83D002563CB
:1007900084F83E50002070BD01EB4106431EB3FBC0
:1007A000F6F35B1CB3E70120C2E701EB4101401EF9
:1007B000B0FBF1F0401CC0F30B00B7E7A0860100CE
:1007C00080841E0000093D0040420F002DE9FF4FCC
:1007D00081B089460446FFF72FFF054694F83D0097
:1007E0004FF0000820287DD11923012250492046CE
:1007F000009500F08FFE002874D194F83C00012889
:1008000070D0012084F83C0020680168C90703D13A
:10081000016841F0010101602068016821F4006174
:100820000160242084F83D00002626644148E062EF
:100830004FF0011B20272068016841F4807101609E
:100840000095002259462046049B00F063FE50B1FB
:1008500020680068C00502D54FF4007020640320B2
:1008600005B0BDE8F08F216809F0FE000861FFF7D0
:10087000E3FE2168054648694969C0F34000C1F3B9
:1008800080214FF0A00A0FE0FFF7D6FE411B04982D
:10089000814200D808B984F83DA0216848694969B7
:1008A000C0F34000C1F3802194F83D20A02A02D07B
:1008B00008B90029E8D084F83D7020684169C9432F
:1008C000890716D4016841F400710160206841690C
:1008D00080691923012216492046009500F01AFE6E
:1008E000B8B900E021E084F83D7084F83C60002055
:1008F000B6E7016841F40071016021686FF480601F
:100900004861192301220A492046009500F002FEA1
:1009100008B10120A4E7039808F1010880458AD3B3
:1009200084F83D7084F83C60F3E7022098E700000B
:10093000020010000000FFFF2DE9F84F1F4690460F
:100940008A460446DDF82890FFF776FE054694F8BF
:100950003D00202875D1192301226C4920460095BD
:1009600000F0D8FD0028F5D194F83C00012868D0AB
:10097000012084F83C0020680168C90703D10168A0
:1009800041F0010101602068016821F4006101600B
:10099000222084F83D00102084F83E0000262664C2
:1009A000C4F824806785608D20855948E0622B4615
:1009B0004A465146204600F0C3FC002878D1208DDD
:1009C000544F68B1012814D002282068016816D05D
:1009D00041F480610160206841698069009087E08E
:1009E0002068416981690091016841F400710160EA
:1009F0007EE02068016821F480610160F0E721F465
:100A0000806101602068016841F40061E2E7032829
:100A100048D801280AD0022814D04B460022394673
:100A20002046009500F076FDD8BB27E02A464946CF
:100A3000204600F0EEFDA0BB20680069616A0870E6
:100A40004DE061E04B46002239462046009500F01B
:100A500061FD30BB2068016841F4007101602068CD
:100A60000069616A0870606A401C6062218D491EDD
:100A70002185618D491E618521682EE0206801680D
:100A800021F48061016020680069616A0870606A11
:100A9000401C6062208D401E2085608D401E608558
:100AA000D0E705E02A464946204600F0B2FD10B1E5
:100AB0000120BDE8F88F20680069616A0870606AEB
:100AC000401C6062218D491E2185618D491E618512
:100AD00021684A69D24352070AD409690170606AE1
:100AE000401C6062208D401E2085608D401E608508
:100AF000208D00288BD1202084F83D0084F83E60B2
:100B000084F83C600020D4E70220D2E70200100005
:100B10000000FFFF040001002DE9F84F1F4690463A
:100B20008A460446DDF82890FFF786FD054694F8CE
:100B30003D0020287FD119230122404920460095FD
:100B400000F0E8FC002876D194F83C00012872D02F
:100B5000012084F83C0020680168C90703D10168BE
:100B600041F0010101602068016821F40061016029
:100B7000212084F83D00102084F83E0000262664E1
:100B8000C4F824806785608D20852D48E0622B465F
:100B90004A465146204600F049FC90B92068416918
:100BA0008069009036E02A464946204600F064FD00
:100BB00050B1206C042804D12068016841F4007110
:100BC00001600120BDE8F88F606A21680078086143
:100BD000606A401C6062618D491E6185218D491EDD
:100BE00089B2218522685369DB435B070BD451B17D
:100BF00000781061606A401C6062608D401E6085F4
:100C0000208D401E20852A464946204600F05CFC87
:100C10000028CED1208D0028C5D154F83D0B0168A5
:100C200041F400710160202004F81E09E677667720
:100C30000020C7E7FFE70220C4E700000200100021
:100C40000000FFFF10B586B0044614216846FFF788
:100C500082FB13492068884220D112480021026893
:100C600042F002020260006800F002000590C0201D
:100C700000901220CDE9010103200390042004908C
:100C800069460948FFF7CEFB06481030016841F479
:100C900000110160006800F40010059006B010BD5E
:100CA000005400403038024000040240024881688D
:100CB00002781144816070471C0000200B4810B579
:100CC000016841F400710160016841F480610160D4
:100CD000016841F480710160032000F061F80F2089
:100CE00000F006F800F024F8002010BD003C02409F
:100CF00070B50D4D04464FF47A712878B1FBF0F0D1
:100D00000A490968B1FBF0F000F0EEFA48B9102C7E
:100D100007D200222146501E00F022F800206C600D
:100D200070BD012070BD00001C00002028000020C4
:100D30000A4808B5016841F480410160006800F488
:100D4000804000900548001F016841F0805101601B
:100D5000006800F08050009008BD00004438024058
:100D6000F0B40E4B1B680C46C3F30223C3F1070516
:100D7000042D00D90425191D072901D2002300E004
:100D8000DB1E012606FA05F1491E214099409E40CE
:100D9000761E16403143F0BC00F02FBD0CED00E094
:100DA000064900F0070208684FF6FF03184040EAC2
:100DB0000220034A10430860704700000CED00E079
:100DC0000000FA052DE9F0470E46050065D0DFF872
:100DD0001481D8F80000F7B200F00700B04207D243
:100DE00088F80070D8F8000000F00700B04254D135
:100DF00028683D4C810712D5400703D5206840F490
:100E0000E05020602878000703D5206840F4604057
:100E100020602068A96820F0F0000843206028784E
:100E2000C0072DD0304968680839012812D002283F
:100E300013D0032811D00968890700292DDA216809
:100E400021F0030101432160FFF7F6FB814641F2E7
:100E5000883A0EE009688903EFE709688901ECE741
:100E6000FFF7EAFBA0EB0901514502D90320BDE8D9
:100E7000F0872068696800F00C00B0EB810FEFD1BB
:100E8000D8F80010404601F00701B14207D90770B9
:100E9000006800F00700B04201D00120E7E72878A1
:100EA000400705D52068E96820F4E0500843206039
:100EB0002878000706D52068296920F4604040EAB8
:100EC000C100206000F028F82168084AC1F303112E
:100ED000515CC8400649086006480068FFF708FFF3
:100EE0000020C4E7003C024008380240281C0008EB
:100EF00028000020200000200448054900680968F7
:100F0000044AC1F38221515CC84070472800002088
:100F100008380240381C0008154810B5006810F069
:100F20000C02144813D01449042A0FD0082A0ED1F9
:100F30000F4C241F2268236802F03F025B0207D592
:100F40002068C0F38810A0FB010106E0084610BD30
:100F50002168C1F38811A1FB00010023FFF784F988
:100F60002168C1F30141491C4900B0FBF1F010BDFB
:100F7000083802400024F40040787D012DE9F84F44
:100F800004006ED02078DFF84C93C007A9F1040567
:100F90004AD009F104000168C1F38101012908D098
:100FA0000068C0F3810002280AD1D9F8000040028D
:100FB00006D52868800337D560680028E1D033E083
:100FC0006068B0F5803F10D0B0F5A02F286810D031
:100FD00020F480302860286820F480202860606831
:100FE000A8B1FFF729FB06460DE0286840F48030E1
:100FF000F4E740F480202860F7E700BFFFF71CFB10
:10100000801B642873D828688003F7D50CE0FFF7AD
:1010100013FB064605E000BFFFF70EFB801B6428AC
:10102000F0D828688003F7D42078DFF8AC828007F6
:101030004FF0000A3ED5A748001D016811F00C0FC3
:1010400008D00068C0F3810002280BD1D9F8000055
:10105000400207D42868800716D5E068012800D12F
:1010600012E033E1E068B8B10120C8F80000FFF7F2
:10107000E3FA064605E000BFFFF7DEFA801B022810
:10108000C0D828688007F7D52868216920F0F800C3
:1010900040EAC10028600DE0C8F800A0FFF7CCFAD4
:1010A000064604E0FFF7C8FA801B02281FD828680C
:1010B0008007F7D42078000722D5864F87486169DA
:1010C000703771B101210160FFF7B6FA064604E0FE
:1010D000FFF7B2FA801B022809D838688007F7D5D5
:1010E0000EE0C0F800A0FFF7A7FA064605E082E090
:1010F000FFF7A2FA801B02287DD838688007F7D452
:101100002078400768D5DFF8CCB100270BF13C0B05
:10111000DBF80000C0000BD4DBF8001041F0805178
:10112000CBF80010DBF80000012700F080500090A1
:101130006B4E3068C00510D4306840F48070306069
:10114000FFF77AFA009005E0FFF776FA0099401A67
:10115000022850D83068C005F6D55E4EA0686C36BF
:1011600001280FD00528306810D020F00100306031
:10117000306820F004003060A068B8B1FFF75CFA76
:1011800000900FE0306840F00100F4E740F0040008
:101190003060F7E7FFF750FA0099411A41F28830C2
:1011A000814266D830688007F4D50EE0FFF744FA34
:1011B000009007E0FFF740FA0099411A41F28830A9
:1011C000814256D830688007F4D42FB1DBF8001084
:1011D00021F08051CBF80010A069C8B33D49091D2A
:1011E0000968C1F3810102294AD00228504607D07C
:1011F000C8F8600000E03CE0FFF71EFA04463BE060
:101200004746C8F86000FFF717FA064605E000BF3A
:10121000FFF712FA801B02282BD828688001F7D428
:10122000D4E907010843A16A2E4A490802EB0141AB
:10123000626A41EA8211084394F82C1040EA016185
:10124000C9F8001001203866FFF7F6F9044606E0F9
:101250003EE000BFFFF7F0F9001B022809D828681C
:101260008001F7D534E000BFFFF7E6F9001B022844
:1012700002D90320BDE8F88F28688001F4D427E064
:101280000128F7D0D9F80000E26900F4800191420A
:101290001CD1226A00F03F01914217D147F6C0717C
:1012A000626A0140B1EB821F10D1A26A4FF0FF3396
:1012B00000F4403103EB5202B1EB024F06D194F837
:1012C0002C1000F07060B0EB016F01D00120D1E76D
:1012D0000020CFE70438024000004742800E47421A
:1012E000007000400000FFFF10B5401EB0F1807F8D
:1012F00001D3012010BD4FF0E02460610F21601781
:1013000000F07BFA0020A06107202061002010BDC2
:10131000FEE701684A69D24352050FD46FF4806238
:101320004A61002140F8301F202242738173026914
:1013300042F00402026101730120704700207047EF
:101340002DE9F84F0446C06A1E4693460D462168B3
:101350000A6842F480620A60082807D0012805D094
:1013600010F5803F02D0206B112804D1206801685D
:1013700041F4807101604FF001195B46002249463B
:101380002046009600F0C6F84FF4007840B120687F
:101390000068C00501D5C4F840800320BDE8F88F7F
:1013A0002069DFF884A0B0F5804F0FD006202168B7
:1013B00000EAD51747F0F000086133465A460AF1B3
:1013C0000601204600F0DAF858BB03E0E8B240F02E
:1013D00001001CE02168E8B2086133465A465146D4
:1013E000204600F0CBF8E0B920684169816900919E
:1013F000016841F4807101605B4600224946204645
:10140000009600F087F80028C1D147F0F10021686C
:10141000086133465A465146204600F0AFF800288E
:10142000BCD00120BAE7000002000100F8B5044674
:10143000C06A1E460D461746082807D0012805D069
:1014400010F5803F02D0206B122804D1206801687B
:1014500041F480710160134600224FF001112046D3
:10146000009600F057F840B120680068C00502D52A
:101470004FF4007020640320F8BD2069B0F5804F60
:101480000ED00620216800EAD51040F0F000086177
:1014900033463A460B49204600F070F878B902E02E
:1014A00005F0FE0000E0E8B2216808610549334616
:1014B0003A46891F204600F061F80028DCD0012060
:1014C000F8BD00000800010070B516460D46044640
:1014D0000DE02046FFF71DFF08B1012070BD681C1C
:1014E00005D0FFF7A9F8801BA84207D835B12068BE
:1014F0004069C0434007ECD4002070BD002044F890
:10150000300F20216173A073216941F02001216116
:101510002073E2E72DE9F0471E4690460D4604464B
:10152000C1F30747DDF8209008E0701C06D0FFF7F4
:1015300083F8A0EB0900B0420FD876B12068012FE4
:1015400018D0806925EA00000004000C14D00021A6
:101550004145EAD00020BDE8F087002044F8300F74
:1015600020216173A073216941F020012161207362
:101570000120F0E74069E5E70121E9E72DE9F047BF
:101580009A4691460E46044600254FF02008C1F3C6
:10159000074725E020684069C043400514D420680F
:1015A000016841F40071016021686FF48060486156
:1015B000256384F83D8084F83E50206C40F00400A0
:1015C000206484F83C501FE0B9F1FF3F08D0FFF7DA
:1015D00033F8A0EB0A0149450CD8B9F1000F09D046
:1015E0002068012F13D0806926EA00000004000C57
:1015F0000BD0CFE744F8305F84F80D80A5732069E5
:1016000040F02000206125730120BDE8F08740698B
:10161000EAE72DE9F041002590460E4604462027D2
:1016200017E04069C043C0060CD454F8301B6FF07B
:101630001000486144F810596777A577206A206246
:10164000257717E0FEF7F8FFA0EB0800B04208D8B6
:101650003EB120684169C9434906E2D40020BDE893
:10166000F08144F8305F6773A573206940F0200073
:10167000206125730120F2E770B516460D46044639
:101680000DE02046FFF745FE08B1012070BD681C43
:1016900005D0FEF7D1FF801BA84207D835B12068DE
:1016A0004069C0430006ECD4002070BD002044F81F
:1016B000300F20216173A073216941F02001216165
:1016C0002073E2E770B586B014216846FEF743FE4A
:1016D0001A480024016841F008010160016801F026
:1016E00008010591016841F004010160016801F001
:1016F00004010591016841F0020101600068104E8B
:1017000000F002004FF48055059000222946304633
:10171000FEF78DFF01200095CDE9010469463046B2
:101720000394FEF77FFE8020CDE90004694605485A
:101730000294FEF777FE06B070BD0000303802401C
:10174000000C024000080240FEE7FEE770477047C9
:10175000FFF7ACBA30B593B030216846FEF7FBFD19
:1017600014210CA8FEF7F7FD1D480025016841F083
:1017700080510160006800F08050119019480168A4
:1017800041F4804101600068022400F4804011901F
:101790000120039010200490009406940820CDE9C5
:1017A0000750A820CDE9090404200B906846FFF7F4
:1017B000E5FB08B172B6FEE70CA90F2081E8310005
:1017C0004FF4A0500F904FF48050109005210CA8BA
:1017D000FFF7F8FA002801D072B6FEE713B030BD6B
:1017E00040380240007000400248016841F4700136
:1017F0000160704788ED00E0FEE70907090E002848
:1018000004DB00F1E02080F80014704700F00F00C6
:1018100000F1E02080F8141D704700002DED028BD0
:1018200082B0FFF74BFAFFF795FFFFF74BFF5148E8
:101830004F49002501605049C0E901154FF480412E
:10184000C0E9035145618561C5610562FEF7FAFE95
:1018500008B172B6FEE70024661E33460122214617
:101860004448FEF7B3FF00287CD0641CE4B2FF2C90
:10187000F3D3424C0B200A26207001206070022313
:1018800022461A213B480096FFF746F909202070AE
:101890001D206070022322461A2136480096FFF769
:1018A0003BF906202070012322461A213148009678
:1018B000FFF732F965700123621C1A212D4800964A
:1018C000FFF73AF8A4F114076078DFF8B4A09FEDB1
:1018D0002D8B7870A946A04680215046FEF79AFECF
:1018E000387088F800904D4644460123234A1A2157
:1018F00020480096FFF710F965700623621C1A2134
:101900001C480096FFF718F834F8010F40BA40421F
:10191000C0B2B870618849BA4942CDB2FD70A188A1
:1019200049BACCB23C7100F064F853EC182B00F0CB
:1019300073F800F02DF8B860284600F05AF853EC20
:10194000182B00F069F800F023F8F860204600F04A
:1019500050F853EC182B00F05FF800F019F83861DC
:10196000BAE7FFE74FF480510848FEF758FE80E7DA
:10197000005400402C000020A0860100140000202C
:1019800000080240000000000000203F000C024060
:1019900021F00042A2F16052B2F5801F01F0004335
:1019A00028BFD2F17F6C0BD95FEA001C43EAC20268
:1019B00042EB507018BF704728BF20F001007047FD
:1019C000B2F5801FBCBF184670474FEA410C1CF5AA
:1019D000001F02D2084600F022B970B500F0C6F828
:1019E00000000089FFF7F6BF4FF00040A0F580002F
:1019F0007047B0FA80F310FA03F10AD0C3F11D0367
:101A000003F580634FEA41504FEA035202EBD121C4
:101A100070474FF000007047DFF848C170B51CEA0E
:101A2000111E1EBF1CEA13159EEA0C0F95EA0C0F3F
:101A300000F06F8081EA030423EA4C134EEAD47E5F
:101A400021EA4C1141F4801143F48013AE44A1FB10
:101A5000024CA0FB0365AEF17F7E361955EB0C05F9
:101A6000A1FB034C4CF10003A0FB021C16EB0C067F
:101A7000654153F10003094218BF46F0010613F413
:101A8000007F0BD14FEA03314FEA0530340341EABE
:101A9000155140EA16506FF003020AE04FEAC321E5
:101AA0004FEAC520F40241EA555140EA56506FF022
:101AB000020202EB2E4201EB025585EACE710AD0FA
:101AC0005FEA440C18BF24F0004450F1000041F1DB
:101AD000000120EAD47040F2FE7C624500D270BD65
:101AE000A84214BF4FF080444FF04044002E08BF7E
:101AF0000024BEF1806FA8BFA1F1C041BDE87040D5
:101B000080F282804FF0000001F1C04101F00041FD
:101B100070479EEA0C0F0CEA131518BF95EA0C0FDC
:101B200006D04FF0000081EA030E0EF0004170BDB8
:101B300000F01CF88900013E00F007B800F009B879
:101B40004FEA430C5FEA5C5C08D081EA030100F0D5
:101B50005BB84FEA410C5FEA5C5CF6D14FF00000E5
:101B6000014970470000FF070000F87F0EF1020EE8
:101B70002EF0030E5EF8046B364205D4012A43EBC7
:101B8000030515F5001F12D8012841EB010C1CF5C7
:101B9000001F0CD80ED14FEAD17C15F5001F0CEBBD
:101BA0004C0C0CF1020C08BF4CEBD37C04E04FF062
:101BB000080C01E04FEAD37C0CEB4C0526FA05F645
:101BC00006F00706B6F1040C06D20EEB860CBDE853
:101BD00070404CF0010C6047DFE80CF0090B02028A
:101BE0004FF000414FF00000A1F5002170BD1946F3
:101BF0001046012851EB010418BFD4F5001484BF2E
:101C0000002001F0004170BD0808A0F500114FEA66
:101C1000310170474FF04070E1EE100A7047FF212C
:101C200041EAD050C00570470000000000000000ED
:101C30000102030406070809000000000102030472
:101C4000601C0008000000202C000000C4010008F7
:101C50008C1C00082C000020B4060000E0010008E5
:101C60000000000000000000000000000000000074
:101C70000000000000000000000000000100000063
:0C1C800010000000000000000024F40030
:040000050800018965
:00000001FF
